:1000000000040020E1040000DD040000DD04000025
:1000100000000000000000000000000000000000E0
:10002000000000000000000000000000DD040000EF
:100030000000000000000000DD040000DD040000FE
:10004000DD040000DD040000DD040000000000000D
:10005000DD040000000000000000000000000000BF
:1000600000000000DD0400000000000000000000AF
:100070000000000000000000000000001109000066
:10008000DD04000000000000DD04000000000000AE
:100090000000000000000000000000000000000060
:1000A000DD0400000000000000000000000000006F
:1000B000000000000000000000000000DD0400005F
:1000C000002243088B4274D303098B425FD3030A97
:1000D0008B4244D3030B8B4228D3030C8B420DD3AA
:1000E000FF22090212BA030C8B4202D31212090238
:1000F00065D0030B8B4219D300E0090AC30B8B4276
:1001000001D3CB03C01A5241830B8B4201D38B0323
:10011000C01A5241430B8B4201D34B03C01A5241C8
:10012000030B8B4201D30B03C01A5241C30A8B420B
:1001300001D3CB02C01A5241830A8B4201D38B02F6
:10014000C01A5241430A8B4201D34B02C01A52419A
:10015000030A8B4201D30B02C01A5241CDD2C3090C
:100160008B4201D3CB01C01A524183098B4201D388
:100170008B01C01A524143098B4201D34B01C01A73
:10018000524103098B4201D30B01C01A5241C308EB
:100190008B4201D3CB00C01A524183088B4201D35A
:1001A0008B00C01A524143088B4201D34B00C01A46
:1001B0005241411A00D20146524110467047FFE7B2
:1001C00001B5002000F0F0F802BDC0460029F7D0CC
:1001D00076E7704703460B437FD4002243088B42E7
:1001E00074D303098B425FD3030A8B4244D3030BBE
:1001F0008B4228D3030C8B420DD3FF22090212BA83
:10020000030C8B4202D31212090265D0030B8B42FE
:1002100019D300E0090AC30B8B4201D3CB03C01AE8
:100220005241830B8B4201D38B03C01A5241430BC3
:100230008B4201D34B03C01A5241030B8B4201D3B3
:100240000B03C01A5241C30A8B4201D3CB02C01A1E
:100250005241830A8B4201D38B02C01A5241430A96
:100260008B4201D34B02C01A5241030A8B4201D385
:100270000B02C01A5241CDD2C3098B4201D3CB012C
:10028000C01A524183098B4201D38B01C01A5241DB
:1002900043098B4201D34B01C01A524103098B42DF
:1002A00001D30B01C01A5241C3088B4201D3CB00CA
:1002B000C01A524183088B4201D38B00C01A5241AD
:1002C00043088B4201D34B00C01A5241411A00D25D
:1002D00001465241104670475DE0CA0F00D04942C6
:1002E000031000D34042534000229C4603098B4236
:1002F0002DD3030A8B4212D3FC22890112BA030ABE
:100300008B420CD3890192118B4208D3890192113F
:100310008B4204D389013AD0921100E08909C309C4
:100320008B4201D3CB01C01A524183098B4201D3C6
:100330008B01C01A524143098B4201D34B01C01AB1
:10034000524103098B4201D30B01C01A5241C30829
:100350008B4201D3CB00C01A524183088B4201D398
:100360008B00C01A5241D9D243088B4201D34B00B3
:10037000C01A5241411A00D20146634652415B10F5
:10038000104601D34042002B00D5494270476346D6
:100390005B1000D3404201B5002000F005F802BD1B
:1003A0000029F8D016E770477047C04600000000EB
:1003B00010B50748074B0849C150084AD150043BC3
:1003C0000749C150D150102000F0D4FA10BDC046EA
:1003D00000000A4004080000030000B10080104043
:1003E00001000026084B85221A67084ADA66812236
:1003F000DA65074A5A67074B8022D20306495A50EA
:1004000006495A507047C0460080424083000400AD
:1004100081000E0000000A4090120000D01200007F
:10042000044A054B0021D150044A136803318B4321
:100430001360704700F00A400813000000010B40F1
:1004400070B5194C1949200000F08EFB18492000A6
:1004500000F066FB88225201A35816490B40A350B6
:10046000154960580D2343401B041B0C4340635047
:100470001248255801212E004E403F2333406B4047
:1004800023500F4823580B4025586B400B406B40BE
:1004900023500C482558A0235B012B432350A3581D
:1004A0001943A15070BDC04600801040B00C000040
:1004B000B40C0000FF7FFEFF1011000014110000BB
:1004C000041100002810000010B5FFF771FFFFF7BE
:1004D00089FFFFF7A5FFFFF7B3FF10BDFEE70000A0
:1004E00010B50F4B0F4A10498B4202D202CA02C309
:1004F000F9E70E4B0E4A0F498B4202D202CA02C3E1
:10050000F9E70D4B01E0002204C30C4A9342FAD3F1
:1005100000F034FB00F0A2F8FFF7E0FF10BDC0468A
:1005200038000020C00C000038000020000000202F
:10053000780C00003800002038000020C0000020A7
:100540007047000030B5A3B0802102A800F0D4F9B4
:100550003F4B1A78D3B2042A51D0042B07D8022B70
:1005600009D0032B05D100230021002018E0052B22
:100570002BD023B030BD374B0193042201A936485C
:1005800000F08EF9F5E79A1C02ADAC5C0322D21A9A
:10059000D200944020439C1D2C5D944021430133A4
:1005A000032BF0DD2A4B1B78032B12D000F0F2F85E
:1005B00002AA1378023BD35C012BDAD101A90B709C
:1005C0000122254800F06CF9D3E700230021002028
:1005D000E6E700F01DF901A9087001221E4800F0AD
:1005E0005FF9C6E7931C02A9C95C03239B1ADB00D1
:1005F00099400D430132032AF4DD002412E0002269
:100600000025F8E7A31D9B1802A8C05C03239B1AD2
:10061000DB00984001430132032AF3DD601900F04A
:10062000E5F8043402AB1B781A00083AA24202DD56
:1006300000220021F0E7023B02AAD35C012B98D1F3
:1006400001A90B700122044800F02AF991E7C04685
:1006500038000020302E31410080104010B5FFF7E7
:1006600033FF164A9C235B01D358DB0002D500F010
:10067000DDF815E0C020400100F026F80028F6D192
:10068000C030400100F03DF8F1E700F0F1F80C4B0C
:1006900018701B78DBB2FF2B02D00A4B02221A70B3
:1006A000084B1B78DAB2012BEFD0022AF8D1FFF702
:1006B00049FF044B00221A70F2E7C04600000A40CE
:1006C00038000020390000200368E022120694461A
:1006D00063448022D20093420DD80123042B08D812
:1006E0009A0011588022D201914207D80133DBB21F
:1006F000F4E70020704701204042FBE70120404220
:10070000F8E710B54368984710BD000070B50400C5
:100710000D000C4B0C4A05219950043A04399950AC
:10072000084A0A4BD3585B07FAD48022054E920040
:100730002100300000F060F92A002100300000F0B4
:100740002BF970BD00D00C4004110000D013000044
:1007500070B504000D000C4B0C4A05219950043A69
:1007600004399950084A0A4BD3585B07FAD48022BF
:10077000054E92002100300000F03EF92A002100D1
:10078000300000F01FF970BD00D00C4004110000D3
:10079000D0130000F8B506000F0004001BE0104B5A
:1007A000104A05219950043A043999500C4A0E4BCD
:1007B000D3585B07FAD48022094D9200210028000B
:1007C00000F01AF940222100280000F0D9F8802317
:1007D000DB009C466444F319A342E0D80020F8BD36
:1007E00000D00C4004110000D013000000B585B00B
:1007F000039101235B4201930291430704D103A9B2
:10080000FFF784FF05B000BD01A9FFF7A1FFF9E7DD
:1008100000238A089A4205D99A001258013203D15E
:100820000133F6E7012070470020FCE7034B8022EC
:100830001202C02149005A501A60704700E100E0DE
:10084000F8B504000F001600002507E0F02000F0C6
:1008500091F8064BE358DB07F8D40135AE4204DDCE
:10086000785D89235B01E050F3E7F8BD08110000D3
:1008700010B5094B197801390848445CC9B200F039
:100880006BF8844205D1044B00221A70034B587850
:1008900010BDFF20FCE7C046BC0000203C0000204B
:1008A000F8B5CE46474680B500AF8046961C531C2F
:1008B00099460833DB08DB006846C31A9D466D463F
:1008C000F6B22E700023934204D25C1CCB5C2B55F5
:1008D000E3B2F8E70132D1B2280000F03DF84B4610
:1008E000E854320029004046FFF7AAFFBD460CBC81
:1008F00090469946F8BD000010B50A00802900D93D
:100900008022024900F05CF910BDC0463C00002086
:100910000C4A81235B01D258FF2313400B2B00D0DC
:10092000704709490B780748084A8058084AD0544C
:100930000133DBB20B7012789342F1D1054B0122E7
:100940001A70EDE700801040BC0000202411000068
:100950003C0000203900002010B5002300228B420B
:1009600004D2C45C12190133DBB2F8E75042C0B2C2
:1009700010BD0000831E043BC046FCD27047C04639
:1009800002231A43034BC25001221C33C150203BA7
:10099000C25070470411000010B50124064BC4502A
:1009A000064B0E34C450043BC1501268044BC25075
:1009B00000F05AF910BDC0460411000024110000D7
:1009C0003011000010B50124074BC450074BFE3412
:1009D000C450043BC1501168054BC1505268054BCF
:1009E000C25000F041F910BD0411000024110000B4
:1009F00030110000341100000523F0B5D6468246C0
:100A000098204F464646072499468D0A3E494001A4
:100A1000C0B516000A580B503C4B224098469B69C3
:100A20000A500A589B0414404A460A5042469B0FFB
:100A300092695F1C0C50002B47D010053900000D47
:100A4000FFF73EFB01002800FFF7C0FB05279823B6
:100A5000B8462D4C5B01E2580720E7502B4F02406F
:100A6000BC46BF694746E250E258E750674602403D
:100A7000BF69E25080229200964213D08023DB00AF
:100A80009E4204D01CBC90469946A246F0BD1F2150
:100A9000012253460D40AA401D481B58934352461D
:100AA0001350EFE71F2D12D9FF2919D8E258104033
:100AB0004246E25062469269E050930415489B0F0B
:100AC0001ED1534620391B5813E02900BEE70122EE
:100AD0005346AA4010495B58934352465350D1E7BE
:100AE000FF235B009942CDD853460C4801391B586F
:100AF000FF390122C9088A40934352461350C1E787
:100B000053461B58F5E7C046000040400000C44172
:100B100010120000D4110000D0110000D811000004
:100B2000882230B5012452018358A34383508D7825
:100B30000B8884582B438D882B43094D63402B40F1
:100B400063408350CA798B79064C13430A7A05595E
:100B500013437E226B4013406B40035130BDC046AF
:100B600018670200041100000A78034BC2504A784B
:100B7000083BC2507047C0460810000070B50C4DCD
:100B80000C4E761BB61005D0002408CD01349847D2
:100B9000A642FAD1FFF7D4FC074D084E761BB610DB
:100BA00005D0002408CD01349847A642FAD170BD83
:100BB000C00C0000C00C0000C00C0000C00C000005
:100BC000F0B5C64600B50F2A41D903270D003E00F7
:100BD00005430C0003002E402F423DD11500103D6F
:100BE0002D09AC462D01A8468044256867681D6024
:100BF0005F60A568E7689D60DF6010341F001033F8
:100C00004745F2D165460F230C2401352D014919C2
:100C100013404519144222D08C59AC5104369C1B08
:100C2000032CF9D80324043B9B0801339B0022408A
:100C3000ED18C918561E002A06D00023CC5C1A00F5
:100C4000EC5401339642F9D104BC9046F0BD050046
:100C5000561E002AF1D1F7E70500561EEDE71A00EF
:100C6000F6E7C0460000000001B40248844601BC1B
:080C7000604700BF01000020F5
:100C7800882301225B01C250094982B0063203E091
:100C8800019BDBB2012B06D0435813400193019B13
:100C9800DBB2032BF4D10198C0B202B07047C04652
:080CA800D01300000000000061
:100CB00008000000000018000000003000000000E4
:04000003000000C039
:00000001FF
