:1000000000040020090300000503000005030000B0
:1000100000000000000000000000000000000000E0
:1000200000000000000000000000000005030000C8
:1000300000000000000000000503000005030000B0
:100040000503000005030000050300000000000098
:100050000503000000000000000000000000000098
:100060000000000005030000000000000000000088
:10007000000000000000000000000000DD030000A0
:100080000503000000000000050300000000000060
:100090000000000000000000000000000000000060
:1000A0000503000000000000000000000000000048
:1000B0000000000000000000000000000503000038
:1000C000002243088B4274D303098B425FD3030A97
:1000D0008B4244D3030B8B4228D3030C8B420DD3AA
:1000E000FF22090212BA030C8B4202D31212090238
:1000F00065D0030B8B4219D300E0090AC30B8B4276
:1001000001D3CB03C01A5241830B8B4201D38B0323
:10011000C01A5241430B8B4201D34B03C01A5241C8
:10012000030B8B4201D30B03C01A5241C30A8B420B
:1001300001D3CB02C01A5241830A8B4201D38B02F6
:10014000C01A5241430A8B4201D34B02C01A52419A
:10015000030A8B4201D30B02C01A5241CDD2C3090C
:100160008B4201D3CB01C01A524183098B4201D388
:100170008B01C01A524143098B4201D34B01C01A73
:10018000524103098B4201D30B01C01A5241C308EB
:100190008B4201D3CB00C01A524183088B4201D35A
:1001A0008B00C01A524143088B4201D34B00C01A46
:1001B0005241411A00D20146524110467047FFE7B2
:1001C00001B5002000F006F802BDC0460029F7D0B6
:1001D00076E770477047C04610B50748074B084997
:1001E000084AC150D1500849043BC1501020D15099
:1001F00000F02EF910BDC04600000A4004080000BF
:10020000030000B100801040010000268522084B49
:1002100008491A67084ADA668122DA65074A5A6786
:100220008022074BD2035A5006495A507047C046A5
:1002300000804240901200008300040081000E0004
:1002400000000A40D01200000021044A044BD150A3
:10025000044A033113688B431360704700F00A406F
:100260000813000000010B4070B5194C194920001B
:1002700000F018F92000184900F0F0F88822520127
:10028000A35816490B40A3500D231549605843400D
:100290001B041B0C434013486350255801212E00BA
:1002A0003F234E4033406B4023500F48235825587E
:1002B0000B406B400B406B40235080230B48DB000E
:1002C00025582B432350A3581943A15070BDC04655
:1002D000008010400005000004050000FF7FFEFFC5
:1002E000101100001411000004110000281000007B
:1002F00010B5FFF771FFFFF789FFFFF7A5FFFFF7C5
:10030000B3FF10BDFEE7C0461A491B4B10B599421A
:100310000BD2013B5A1A002392080132174892006F
:10032000C458CC5004339342FAD11549154B994225
:100330000BD2013B5A1A0023920801321248920054
:10034000C458CC5004339342FAD1104B104A934214
:1003500009D20021013AD21A920801329200D21831
:1003600002C39A42FCD100F0A7F800F015F8FFF79D
:10037000C9FF10BD00000020000000201005000093
:100380000000002000000020000500000000002008
:10039000080000207047C04610B5FFF7A9FF802273
:1003A000C0210B4B120249005A501A609C23094A83
:1003B0005B01D358DB0006D50221074A13690B43C2
:1003C000136130BFFDE7C020400100F029F8F3E7DA
:1003D00000E100E000000A4000ED00E081230B4A4C
:1003E0005B01D158FF230B400B2B0ED18020084915
:1003F000084BC003C850084B0849D358DBB20B70F8
:100400000B788921DBB249015350704700801040BE
:1004100000000A40B012000024110000000000207B
:10042000E0221206944680220368D200634493427D
:100430000BD88022031DD20114301968914204D8D0
:1004400004338342F9D10120704701204042FBE789
:10045000831E043BC046FCD27047C046882230B59C
:10046000012452018358A34383508D780B8884580C
:100470002B438D882B43094D63402B4063408350B1
:10048000CA798B79064C13430A7A055913437E22A5
:100490006B4013406B40035130BDC04618670200EB
:1004A000041100000A78034BC2504A78083BC2503E
:1004B0007047C0460810000070B50C4D0C4E761BFE
:1004C000B61005D0002408CD01349847A642FAD1D1
:1004D000FFF760FF074D084E761BB61005D00024CD
:1004E00008CD01349847A642FAD170BD100500002E
:1004F00010050000100500001005000000000000BD
:10050000080000000000180000000030000000009B
:04000003000000C039
:00000001FF
