:1000000000040020E1040000DD040000DD04000025
:1000100000000000000000000000000000000000E0
:10002000000000000000000000000000DD040000EF
:100030000000000000000000DD040000DD040000FE
:10004000DD040000DD040000DD040000000000000D
:10005000DD040000000000000000000000000000BF
:1000600000000000DD0400000000000000000000AF
:100070000000000000000000000000005507000024
:10008000DD04000000000000DD04000000000000AE
:100090000000000000000000000000000000000060
:1000A000DD0400000000000000000000000000006F
:1000B000000000000000000000000000DD0400005F
:1000C000002243088B4274D303098B425FD3030A97
:1000D0008B4244D3030B8B4228D3030C8B420DD3AA
:1000E000FF22090212BA030C8B4202D31212090238
:1000F00065D0030B8B4219D300E0090AC30B8B4276
:1001000001D3CB03C01A5241830B8B4201D38B0323
:10011000C01A5241430B8B4201D34B03C01A5241C8
:10012000030B8B4201D30B03C01A5241C30A8B420B
:1001300001D3CB02C01A5241830A8B4201D38B02F6
:10014000C01A5241430A8B4201D34B02C01A52419A
:10015000030A8B4201D30B02C01A5241CDD2C3090C
:100160008B4201D3CB01C01A524183098B4201D388
:100170008B01C01A524143098B4201D34B01C01A73
:10018000524103098B4201D30B01C01A5241C308EB
:100190008B4201D3CB00C01A524183088B4201D35A
:1001A0008B00C01A524143088B4201D34B00C01A46
:1001B0005241411A00D20146524110467047FFE7B2
:1001C00001B5002000F0F0F802BDC0460029F7D0CC
:1001D00076E7704703460B437FD4002243088B42E7
:1001E00074D303098B425FD3030A8B4244D3030BBE
:1001F0008B4228D3030C8B420DD3FF22090212BA83
:10020000030C8B4202D31212090265D0030B8B42FE
:1002100019D300E0090AC30B8B4201D3CB03C01AE8
:100220005241830B8B4201D38B03C01A5241430BC3
:100230008B4201D34B03C01A5241030B8B4201D3B3
:100240000B03C01A5241C30A8B4201D3CB02C01A1E
:100250005241830A8B4201D38B02C01A5241430A96
:100260008B4201D34B02C01A5241030A8B4201D385
:100270000B02C01A5241CDD2C3098B4201D3CB012C
:10028000C01A524183098B4201D38B01C01A5241DB
:1002900043098B4201D34B01C01A524103098B42DF
:1002A00001D30B01C01A5241C3088B4201D3CB00CA
:1002B000C01A524183088B4201D38B00C01A5241AD
:1002C00043088B4201D34B00C01A5241411A00D25D
:1002D00001465241104670475DE0CA0F00D04942C6
:1002E000031000D34042534000229C4603098B4236
:1002F0002DD3030A8B4212D3FC22890112BA030ABE
:100300008B420CD3890192118B4208D3890192113F
:100310008B4204D389013AD0921100E08909C309C4
:100320008B4201D3CB01C01A524183098B4201D3C6
:100330008B01C01A524143098B4201D34B01C01AB1
:10034000524103098B4201D30B01C01A5241C30829
:100350008B4201D3CB00C01A524183088B4201D398
:100360008B00C01A5241D9D243088B4201D34B00B3
:10037000C01A5241411A00D20146634652415B10F5
:10038000104601D34042002B00D5494270476346D6
:100390005B1000D3404201B5002000F005F802BD1B
:1003A0000029F8D016E770477047C04600000000EB
:1003B00010B50748074B0849C150084AD150043BC3
:1003C0000749C150D150102000F0F6F910BDC046C9
:1003D00000000A4004080000030000B10080104043
:1003E00001000026084B85221A67084ADA66812236
:1003F000DA65074A5A67074B8022D20306495A50EA
:1004000006495A507047C0460080424083000400AD
:1004100081000E0000000A4090120000D01200007F
:10042000044A054B0021D150044A136803318B4321
:100430001360704700F00A400813000000010B40F1
:1004400070B5194C1949200000F0E0F91849200056
:1004500000F0B8F988225201A35816490B40A35066
:10046000154960580D2343401B041B0C4340635047
:100470001248255801212E004E403F2333406B4047
:1004800023500F4823580B4025586B400B406B40BE
:1004900023500C482558A0235B012B432350A3581D
:1004A0001943A15070BDC0460080104008090000EB
:1004B0000C090000FF7FFEFF101100001411000066
:1004C000041100002810000010B5FFF771FFFFF7BE
:1004D00089FFFFF7A5FFFFF7B3FF10BDFEE70000A0
:1004E00010B50F4B0F4A10498B4202D202CA02C309
:1004F000F9E70E4B0E4A0F498B4202D202CA02C3E1
:10050000F9E70D4B01E0002204C30C4A9342FAD3F1
:1005100000F086F900F054F8FFF7E0FF10BDC04688
:10052000000000201809000000000020000000204A
:1005300008090000000000200000002088000020C2
:100540007047000030B5A3B01A4B1A78D3B2022A14
:100550000ED0062B04D0012B01D023B030BDFEE716
:10056000154B0293042202A9144800F099F8F4E70D
:10057000802102A800F0E2F80023002100200CE016
:100580009A1C02ADAC5C0322D21AD20094402043E4
:100590009C1D2C5D944021430133032BF0DD00F0C2
:1005A00066F86B46D91D08700122044800F078F8FF
:1005B000D3E7C04600000020302E314100801040BB
:1005C00010B5FFF781FF164A9C235B01D358DB006F
:1005D00002D500F05BF815E0C020400100F026F8DD
:1005E0000028F6D1C030400100F03DF8F1E700F0FE
:1005F0008DF80C4B18701B78DBB2FF2B02D00A4B26
:1006000002221A70084B1B78DAB2012BEFD0022AB3
:10061000F8D1FFF797FF044B00221A70F2E7C046AB
:1006200000000A4000000020010000200368E022D2
:100630001206944663448022D20093420DD80123CF
:10064000042B08D89A0011588022D201914207D871
:100650000133DBB2F4E70020704701204042FBE7A2
:1006600001204042F8E710B54368984710BD0023C9
:100670008A089A4205D99A001258013203D10133EF
:10068000F6E7012070470020FCE70000034B8022C2
:100690001202C02149005A501A60704700E100E080
:1006A000F0B5C64600B500AF0400901C531C984638
:1006B0000833DB08DB006D46EB1A9D466E46307052
:1006C000002303E0581CCB5C3354C3B29342F9D3EC
:1006D0000132D1B2300000F061F84346F0540025F9
:1006E00007E0F02000F068F8074BE358DB07F8D488
:1006F0000135A84504DB725D89235B01E250F3E715
:10070000BD4604BC9046F0BD0811000010B5094B71
:10071000197801390848445CC9B200F03FF88442B6
:1007200005D1044B00221A70034B587810BDFF20EE
:10073000FCE7C046840000200400002010B50A0039
:10074000802900D98022024900F08CF810BDC046F3
:10075000040000200C4A81235B01D258FF23134080
:100760000B2B00D0704709490B780748084A80587E
:10077000084AD0540133DBB20B7012789342F1D1A6
:10078000054B01221A70EDE7008010408400002024
:1007900024110000040000200100002010B50023F7
:1007A00000228B4204D2C45C12190133DBB2F8E799
:1007B0005042C0B210BD0000831E043BC046FCD2B4
:1007C0007047C046882230B5012452018358A343A4
:1007D00083508D780B8884582B438D882B43094D8B
:1007E00063402B4063408350CA798B79064C134396
:1007F0000A7A055913437E226B4013406B40035124
:1008000030BDC04618670200041100000A78034B8F
:10081000C2504A78083BC2507047C04608100000DA
:1008200070B50C4D0C4E761BB61005D0002408CDCB
:1008300001349847A642FAD1FFF782FE074D084ED1
:10084000761BB61005D0002408CD01349847A64287
:10085000FAD170BD1809000018090000180900003D
:1008600018090000F0B5C64600B50F2A41D9032784
:100870000D003E0005430C0003002E402F423DD1E9
:100880001500103D2D09AC462D01A8468044256871
:1008900067681D605F60A568E7689D60DF60103471
:1008A0001F0010334745F2D165460F230C24013554
:1008B0002D01491913404519144222D08C59AC51CD
:1008C00004369C1B032CF9D80324043B9B080133FA
:1008D0009B002240ED18C918561E002A06D000239E
:1008E000CC5C1A00EC5401339642F9D104BC90461A
:1008F000F0BD0500561E002AF1D1F7E70500561E8F
:08090000EDE71A00F6E7C0461E
:10090800080000000000180000000030000000008F
:04000003000000C039
:00000001FF
