:1000000000040020E1040000DD040000DD04000025
:1000100000000000000000000000000000000000E0
:10002000000000000000000000000000DD040000EF
:100030000000000000000000DD040000DD040000FE
:10004000DD040000DD040000DD040000000000000D
:10005000DD040000000000000000000000000000BF
:1000600000000000DD0400000000000000000000AF
:10007000000000000000000000000000E109000096
:10008000DD04000000000000DD04000000000000AE
:100090000000000000000000000000000000000060
:1000A000DD0400000000000000000000000000006F
:1000B000000000000000000000000000DD0400005F
:1000C000002243088B4274D303098B425FD3030A97
:1000D0008B4244D3030B8B4228D3030C8B420DD3AA
:1000E000FF22090212BA030C8B4202D31212090238
:1000F00065D0030B8B4219D300E0090AC30B8B4276
:1001000001D3CB03C01A5241830B8B4201D38B0323
:10011000C01A5241430B8B4201D34B03C01A5241C8
:10012000030B8B4201D30B03C01A5241C30A8B420B
:1001300001D3CB02C01A5241830A8B4201D38B02F6
:10014000C01A5241430A8B4201D34B02C01A52419A
:10015000030A8B4201D30B02C01A5241CDD2C3090C
:100160008B4201D3CB01C01A524183098B4201D388
:100170008B01C01A524143098B4201D34B01C01A73
:10018000524103098B4201D30B01C01A5241C308EB
:100190008B4201D3CB00C01A524183088B4201D35A
:1001A0008B00C01A524143088B4201D34B00C01A46
:1001B0005241411A00D20146524110467047FFE7B2
:1001C00001B5002000F0F0F802BDC0460029F7D0CC
:1001D00076E7704703460B437FD4002243088B42E7
:1001E00074D303098B425FD3030A8B4244D3030BBE
:1001F0008B4228D3030C8B420DD3FF22090212BA83
:10020000030C8B4202D31212090265D0030B8B42FE
:1002100019D300E0090AC30B8B4201D3CB03C01AE8
:100220005241830B8B4201D38B03C01A5241430BC3
:100230008B4201D34B03C01A5241030B8B4201D3B3
:100240000B03C01A5241C30A8B4201D3CB02C01A1E
:100250005241830A8B4201D38B02C01A5241430A96
:100260008B4201D34B02C01A5241030A8B4201D385
:100270000B02C01A5241CDD2C3098B4201D3CB012C
:10028000C01A524183098B4201D38B01C01A5241DB
:1002900043098B4201D34B01C01A524103098B42DF
:1002A00001D30B01C01A5241C3088B4201D3CB00CA
:1002B000C01A524183088B4201D38B00C01A5241AD
:1002C00043088B4201D34B00C01A5241411A00D25D
:1002D00001465241104670475DE0CA0F00D04942C6
:1002E000031000D34042534000229C4603098B4236
:1002F0002DD3030A8B4212D3FC22890112BA030ABE
:100300008B420CD3890192118B4208D3890192113F
:100310008B4204D389013AD0921100E08909C309C4
:100320008B4201D3CB01C01A524183098B4201D3C6
:100330008B01C01A524143098B4201D34B01C01AB1
:10034000524103098B4201D30B01C01A5241C30829
:100350008B4201D3CB00C01A524183088B4201D398
:100360008B00C01A5241D9D243088B4201D34B00B3
:10037000C01A5241411A00D20146634652415B10F5
:10038000104601D34042002B00D5494270476346D6
:100390005B1000D3404201B5002000F005F802BD1B
:1003A0000029F8D016E770477047C04600000000EB
:1003B00010B50748074B0849C150084AD150043BC3
:1003C0000749C150D150102000F050FB10BDC0466D
:1003D00000000A4004080000030000B10080104043
:1003E00001000026084B85221A67084ADA66812236
:1003F000DA65074A5A67074B8022D20306495A50EA
:1004000006495A507047C0460080424083000400AD
:1004100081000E0000000A4090120000D01200007F
:10042000044A054B0021D150044A136803318B4321
:100430001360704700F00A400813000000010B40F1
:1004400070B5194C1949200000F00AFC1849200029
:1004500000F0E2FB88225201A35816490B40A3503A
:10046000154960580D2343401B041B0C4340635047
:100470001248255801212E004E403F2333406B4047
:1004800023500F4823580B4025586B400B406B40BE
:1004900023500C482558A0235B012B432350A3581D
:1004A0001943A15070BDC04600801040A80D000047
:1004B000AC0D0000FF7FFEFF1011000014110000C2
:1004C000041100002810000010B5FFF771FFFFF7BE
:1004D00089FFFFF7A5FFFFF7B3FF10BDFEE70000A0
:1004E00010B50F4B0F4A10498B4202D202CA02C309
:1004F000F9E70E4B0E4A0F498B4202D202CA02C3E1
:10050000F9E70D4B01E0002204C30C4A9342FAD3F1
:1005100000F0B0FB00F0F4F8FFF7E0FF10BDC046BC
:1005200038000020E8110000380000200000002002
:10053000700D00003800002038000020400100202D
:100540007047000010B5094A9C235B01D358DB00BB
:1005500001D5002010BDC020400100F0FDF80028AA
:1005600001D00020F6E70120F4E7C04600000A4071
:1005700070B5C2B08021490002A800F023FA5C4B9C
:100580001B78DBB20A2B0AD89B005A4AD3589F46E5
:10059000594B0193042201A9584800F0E7F942B0F1
:1005A00070BD002300210020032B0DDC9A1C02AD3E
:1005B000AC5C0322D21AD200944020439C1D2C5DD7
:1005C000944021430133EFE7494B1B78032B0FD0B5
:1005D00000F028F902AA1378023BD35C012BDED18C
:1005E00001AB01221A701900444800F0BFF9D6E7A8
:1005F00000F056F901AB1870012219003F4800F0D5
:10060000B5F9CCE73A4B1B78052B0ED0002600231A
:100610000025032B0BDC9A1C02A9895C0322D21A49
:10062000D20091400D430133F3E70326EFE70024A6
:100630000FE0A31D9B1802A8C05C03239B1ADB00DC
:10064000984001430132032AF3DD601900F016F9E6
:10065000043402AB1B78320031000831591AA14230
:1006600002DD00220021EEE702329B1A02AAD35CCF
:10067000012B00D0FEE701AB01221A7019001F48C0
:1006800000F074F98BE7002300210022032B0DDC1E
:10069000981C02AD2C5C0320C01AC0008440224389
:1006A0009C1D2C5D844021430133EFE7002000F0C6
:1006B000C9F902AA1378023BD35C012B00D06EE784
:1006C00001AB01221A7019000C4800F04FF966E7DF
:1006D000FFF738FF002800D161E701220121074818
:1006E00000F044F9C020400100F053F857E7C0463D
:1006F00038000020B80D0000302E3141008010403D
:1007000010B5FFF7E1FEFFF71DFF002802D100F052
:10071000D5F80FE0C020400100F03BF8F7E700F00B
:10072000EFF80B4B18701B78DBB2FF2B02D0094B94
:1007300002221A70074B1B78DAB2012BEFD0022A83
:10074000F8D1FFF715FF034B00221A70F2E7C046FD
:1007500038000020390000200368E0221206944689
:1007600063448022D20093420DD80123042B08D881
:100770009A0011588022D201914207D80133DBB28E
:10078000F4E70020704701204042FBE7012040428F
:10079000F8E710B54368984710BD000070B5040035
:1007A0000D000C4B0C4A05219950043A043999501C
:1007B000084A0A4BD3585B07FAD48022054E9200B0
:1007C0002100300000F094F92A002100300000F0F0
:1007D0005FF970BD00D00C4004110000D013000080
:1007E00070B504000D000C4B0C4A05219950043AD9
:1007F00004399950084A0A4BD3585B07FAD480222F
:10080000054E92002100300000F072F92A0021000C
:10081000300000F053F970BD00D00C40041100000E
:10082000D0130000F8B506000F0004001BE0104BC9
:10083000104A05219950043A043999500C4A0E4B3C
:10084000D3585B07FAD48022094D9200210028007A
:1008500000F04EF940222100280000F00DF980231D
:10086000DB009C466444F319A342E0D80020F8BDA5
:1008700000D00C4004110000D013000000B585B07A
:10088000039101235B4201930291430704D103A921
:10089000FFF784FF05B000BD01A9FFF7A1FFF9E74D
:1008A00000238A089A4205D99A001258013203D1CE
:1008B0000133F6E7012070470020FCE7034B80225C
:1008C0001202C02149005A501A60704700E100E04E
:1008D000F8B504000F001600002507E0F02000F036
:1008E000C5F8064BE358DB07F8D40135AE4204DD0A
:1008F000785D89235B01E050F3E7F8BD0811000043
:1009000010B5184B5B78052B0FD0174B19780139B0
:100910001448445CC9B200F087F8844220D1124BDD
:1009200000221A700F4B587810BD0F4B19780439FC
:100930000C4A002000F086F80022032AEFDC0A4B64
:100940001B78013B9B1A0749C95CD3000400DC40BB
:10095000FF232340994201D10132EEE7FF20E3E774
:10096000FF20E1E73C0000203C010020F8B5CE4626
:10097000474680B500AF8046961C531C9946083305
:10098000DB08DB006846C31A9D466D46F6B22E7042
:100990000023934204D25C1CCB5C2B55E3B2F8E7F6
:1009A0000132D1B2280000F03FF84B46E854320043
:1009B00029004046FFF78CFFBD460CBC9046994687
:1009C000F8BD000010B50A0080235B00994200D9F1
:1009D0001A00024900F070F910BDC0463C0000202A
:1009E0000C4A81235B01D258FF2313400B2B00D00C
:1009F000704709490B780748084A8058084AD0547C
:100A00000133DBB20B7012789342F1D1054B012216
:100A10001A70EDE7008010403C0100202411000016
:100A20003C0000203900002010B5002300228B423A
:100A300004D2C45C12190133DBB2F8E75042C0B2F1
:100A400010BD000010B5C04300290AD0C3B214780D
:100A500063409B00044C1B59000A58400132013985
:100A6000F2E7C04310BDC046E40D0000831E043B06
:100A7000C046FCD27047C04602231A43034BC25003
:100A800001221C33C150203BC250704704110000AA
:100A900010B50124064BC450064B0E34C450043B21
:100AA000C1501268044BC25000F05AF910BDC04644
:100AB00004110000241100003011000010B50124C1
:100AC000074BC450074BFE34C450043BC15011685F
:100AD000054BC1505268054BC25000F041F910BDA2
:100AE0000411000024110000301100003411000036
:100AF0000523F0B5D646824698204F464646072441
:100B000099468D0A3E494001C0B516000A580B505F
:100B10003C4B224098469B690A500A589B0414405B
:100B20004A460A5042469B0F92695F1C0C50002BAC
:100B300047D010053900000DFFF7C2FA0100280068
:100B4000FFF744FB05279823B8462D4C5B01E2587C
:100B50000720E7502B4F0240BC46BF694746E25092
:100B6000E258E75067460240BF69E2508022920097
:100B7000964213D08023DB009E4204D01CBC9046DA
:100B80009946A246F0BD1F21012253460D40AA40BE
:100B90001D481B58934352461350EFE71F2D12D99F
:100BA000FF2919D8E25810404246E2506246926945
:100BB000E050930415489B0F1ED1534620391B5813
:100BC00013E02900BEE701225346AA4010495B58B2
:100BD000934352465350D1E7FF235B009942CDD84F
:100BE00053460C4801391B58FF390122C9088A4075
:100BF000934352461350C1E753461B58F5E7C0468E
:100C0000000040400000C44110120000D411000058
:100C1000D0110000D8110000882230B50124520103
:100C20008358A34383508D780B8884582B438D8839
:100C30002B43094D63402B4063408350CA798B7925
:100C4000064C13430A7A055913437E226B40134026
:100C50006B40035130BDC04618670200041100000C
:100C60000A78034BC2504A78083BC2507047C046CE
:100C70000810000070B50C4D0C4E761BB61005D058
:100C8000002408CD01349847A642FAD1FFF758FC5A
:100C9000074D084E761BB61005D0002408CD013450
:100CA0009847A642FAD170BDE8110000E811000093
:100CB000E8110000E8110000F0B5C64600B50F2AA3
:100CC00041D903270D003E0005430C0003002E40D0
:100CD0002F423DD11500103D2D09AC462D01A846EF
:100CE0008044256867681D605F60A568E7689D604F
:100CF000DF6010341F0010334745F2D165460F23E3
:100D00000C2401352D01491913404519144222D0F4
:100D10008C59AC5104369C1B032CF9D80324043B9A
:100D20009B0801339B002240ED18C918561E002A6B
:100D300006D00023CC5C1A00EC5401339642F9D162
:100D400004BC9046F0BD0500561E002AF1D1F7E71D
:100D50000500561EEDE71A00F6E7C0460000000049
:100D600001B40248844601BC604700BF0100002076
:100D7000882301225B01C250094982B0063203E098
:100D8000019BDBB2012B06D0435813400193019B1A
:100D9000DBB2032BF4D10198C0B202B07047C04659
:080DA000D01300000000000068
:100DA80008000000000018000000003000000000EB
:100DB8009E0500009E05000090050000A2050000A9
:100DC8000406000004060000A20500009E050000BD
:100DD800860600009E050000D00600000000000006
:100DE800963007772C610EEEBA51099919C46D0730
:100DF8008FF46A7035A563E9A395649E3288DB0E8B
:100E0800A4B8DC791EE9D5E088D9D2972B4CB6096D
:100E1800BD7CB17E072DB8E7911DBF906410B71D4A
:100E2800F220B06A4871B9F3DE41BE847DD4DA1A83
:100E3800EBE4DD6D51B5D4F4C785D38356986C13B4
:100E4800C0A86B647AF962FDECC9658A4F5C01142D
:100E5800D96C0663633D0FFAF50D088DC8206E3B0B
:100E68005E10694CE44160D5727167A2D1E4033C1D
:100E780047D4044BFD850DD26BB50AA5FAA8B53544
:100E88006C98B242D6C9BBDB40F9BCACE36CD83233
:100E9800755CDF45CF0DD6DC593DD1ABAC30D926DA
:100EA8003A00DE518051D7C81661D0BFB5F4B421DD
:100EB80023C4B3569995BACF0FA5BDB89EB80228DA
:100EC8000888055FB2D90CC624E90BB1877C6F2F5F
:100ED800114C6858AB1D61C13D2D66B69041DC765A
:100EE8000671DB01BC20D2982A10D5EF8985B17133
:100EF8001FB5B606A5E4BF9F33D4B8E8A2C90778E2
:100F080034F9000F8EA8099618980EE1BB0D6A7F78
:100F18002D3D6D08976C6491015C63E6F4516B6B31
:100F280062616C1CD83065854E0062F2ED95066CE6
:100F38007BA5011BC1F4088257C40FF5C6D9B0655B
:100F480050E9B712EAB8BE8B7C88B9FCDF1DDD62B8
:100F5800492DDA15F37CD38C654CD4FB5861B24D1E
:100F6800CE51B53A7400BCA3E230BBD441A5DF4AE8
:100F7800D795D83D6DC4D1A4FBF4D6D36AE96943AB
:100F8800FCD96E34468867ADD0B860DA732D044456
:100F9800E51D03335F4C0AAAC97C0DDD3C71055081
:100FA800AA41022710100BBE86200CC925B5685728
:100FB800B3856F2009D466B99FE461CE0EF9DE5E71
:100FC80098C9D9292298D0B0B4A8D7C7173DB35922
:100FD800810DB42E3B5CBDB7AD6CBAC02083B8EDB3
:100FE800B6B3BF9A0CE2B6039AD2B1743947D5EAC0
:100FF800AF77D29D1526DB048316DC73120B63E3EF
:10100800843B64943E6A6D0DA85A6A7A0BCF0EE44D
:101018009DFF099327AE000AB19E077D44930FF008
:10102800D2A3088768F2011EFEC206695D5762F7FF
:10103800CB67658071366C19E7066B6E761BD4FE3C
:10104800E02BD3895A7ADA10CC4ADD676FDFB9F919
:10105800F9EFBE8E43BEB717D58EB060E8A3D6D6DB
:101068007E93D1A1C4C2D83852F2DF4FF167BBD109
:101078006757BCA6DD06B53F4B36B248DA2B0DD80C
:101088004C1B0AAFF64A0336607A0441C3EF60DFAF
:1010980055DF67A8EF8E6E3179BE69468CB361CB98
:1010A8001A8366BCA0D26F2536E2685295770CCCBD
:1010B80003470BBBB91602222F260555BE3BBAC5FE
:1010C800280BBDB2925AB42B046AB35CA7FFD7C2EF
:1010D80031CFD0B58B9ED92C1DAEDE5BB0C2649BE0
:1010E80026F263EC9CA36A750A936D02A906099C13
:1010F8003F360EEB8567077213570005824ABF9586
:10110800147AB8E2AE2BB17B381BB60C9B8ED29208
:101118000DBED5E5B7EFDC7C21DFDB0BD4D2D3865F
:1011280042E2D4F1F8B3DD686E83DA1FCD16BE81D2
:101138005B26B9F6E177B06F7747B718E65A0888A3
:10114800706A0FFFCA3B06665C0B0111FF9E658F34
:1011580069AE62F8D3FF6B6145CF6C1678E20AA0DE
:10116800EED20DD75483044EC2B30339612667A764
:10117800F71660D04D476949DB776E3E4A6AD1AEB3
:10118800DC5AD6D9660BDF40F03BD83753AEBCA942
:10119800C59EBBDE7FCFB247E9FFB5301CF2BDBDAF
:1011A8008AC2BACA3093B353A6A3B4240536D0BAB8
:1011B8009306D7CD2957DE54BF67D9232E7A66B355
:1011C800B84A61C4021B685D942B6F2A37BE0BB402
:1011D800A18E0CC31BDF055A8DEF022D0000000005
:04000003000000C039
:00000001FF
