:1000000000040020090300000503000005030000B0
:1000100000000000000000000000000000000000E0
:1000200000000000000000000000000005030000C8
:1000300000000000000000000503000005030000B0
:100040000503000005030000050300000000000098
:100050000503000000000000000000000000000098
:100060000000000005030000000000000000000088
:10007000000000000000000000000000D5040000A7
:100080000503000000000000050300000000000060
:100090000000000000000000000000000000000060
:1000A0000503000000000000000000000000000048
:1000B0000000000000000000000000000503000038
:1000C000002243088B4274D303098B425FD3030A97
:1000D0008B4244D3030B8B4228D3030C8B420DD3AA
:1000E000FF22090212BA030C8B4202D31212090238
:1000F00065D0030B8B4219D300E0090AC30B8B4276
:1001000001D3CB03C01A5241830B8B4201D38B0323
:10011000C01A5241430B8B4201D34B03C01A5241C8
:10012000030B8B4201D30B03C01A5241C30A8B420B
:1001300001D3CB02C01A5241830A8B4201D38B02F6
:10014000C01A5241430A8B4201D34B02C01A52419A
:10015000030A8B4201D30B02C01A5241CDD2C3090C
:100160008B4201D3CB01C01A524183098B4201D388
:100170008B01C01A524143098B4201D34B01C01A73
:10018000524103098B4201D30B01C01A5241C308EB
:100190008B4201D3CB00C01A524183088B4201D35A
:1001A0008B00C01A524143088B4201D34B00C01A46
:1001B0005241411A00D20146524110467047FFE7B2
:1001C00001B5002000F006F802BDC0460029F7D0B6
:1001D00076E770477047C04610B50748074B084997
:1001E000084AC150D1500849043BC1501020D15099
:1001F00000F0C0F910BDC04600000A40040800002D
:10020000030000B100801040010000268522084B49
:1002100008491A67084ADA668122DA65074A5A6786
:100220008022074BD2035A5006495A507047C046A5
:1002300000804240901200008300040081000E0004
:1002400000000A40D01200000021044A044BD150A3
:10025000044A033113688B431360704700F00A406F
:100260000813000000010B4070B5194C194920001B
:1002700000F0AAF92000184900F082F98822520102
:10028000A35816490B40A3500D231549605843400D
:100290001B041B0C434013486350255801212E00BA
:1002A0003F234E4033406B4023500F48235825587E
:1002B0000B406B400B406B402350A0230B485B016D
:1002C00025582B432350A3581943A15070BDC04655
:1002D000008010402006000024060000FF7FFEFF83
:1002E000101100001411000004110000281000007B
:1002F00010B5FFF771FFFFF789FFFFF7A5FFFFF7C5
:10030000B3FF10BDFEE7C0461A491B4B10B599421A
:100310000BD2013B5A1A002392080132174892006F
:10032000C458CC5004339342FAD11549154B994225
:100330000BD2013B5A1A0023920801321248920054
:10034000C458CC5004339342FAD1104B104A934214
:1003500009D20021013AD21A920801329200D21831
:1003600002C39A42FCD100F039F900F015F8FFF70A
:10037000C9FF10BD00000020000000203006000072
:1003800000000020000000202006000000000020E7
:10039000880000207047C046F0B5CE46474680B57D
:1003A00083B0FFF7A5FF9C231C4A5B01D358DB00F9
:1003B00029D500F05DF81A4B02279946194B002603
:1003C0009846194C194D2378DAB2012B09D0022A2C
:1003D000F9D12B78062B0DD026702378DAB2012BB9
:1003E000F5D14B464046197800F09AF8C0B2287013
:1003F0002770E8E70E4B04220E4801A9019300F094
:1004000041F82670E9E7C020400100F015F8002807
:10041000CFD1C020400100F027F8CAE700000A4011
:100420000200002004000020010000200000002045
:10043000302E314100801040E02212069446802286
:100440000368D200634493420BD88022031DD2017B
:1004500014301968914204D804338342F9D1002042
:10046000704701204042FBE710B54368984710BD34
:100470008022C021024B120249005A501A60704774
:1004800000E100E0F0B54F464646D64604008946F6
:100490009046C0B5002A15D089235B0100279A46F3
:1004A00001250B4E4B465246DB5DA350A3591D421E
:1004B00005D0F02000F05EF8A3591D42F9D10137B4
:1004C0004745EFDB1CBC90469946A246F0BDC046AE
:1004D0000811000081230D495B01CA58FF23134016
:1004E0000B2B00D070470A480A4B0278CB580A49B8
:1004F0008B540132D3B20370CB18013B1B780A2B0B
:10050000F0D10122054B1A70ECE7C0460080104084
:10051000020000202411000004000020010000203F
:1005200070B50278CB1E04009A420DD143180239EF
:10053000023BC9B21D7800F00DF8854204D10022BB
:10054000034B60781A7070BD01204042FBE7C04643
:100550000200002010B500290AD000230022C45C4C
:1005600001331219DCB2A142F9D85042C0B210BD19
:100570000020FCE7831E043BC046FCD27047C04607
:10058000882230B5012452018358A34383508D78CB
:100590000B8884582B438D882B43094D63402B4097
:1005A00063408350CA798B79064C13430A7A055904
:1005B00013437E226B4013406B40035130BDC04655
:1005C00018670200041100000A78034BC2504A78F1
:1005D000083BC2507047C0460810000070B50C4D73
:1005E0000C4E761BB61005D0002408CD0134984778
:1005F000A642FAD1FFF7CEFE074D084E761BB61085
:1006000005D0002408CD01349847A642FAD170BD28
:100610003006000030060000300600003006000002
:10062000080000000000180000000030000000007A
:04000003000000C039
:00000001FF
