:1018000000040020451900004119000041190000A2
:1018100000000000000000000000000000000000C8
:10182000000000000000000000000000411900005E
:1018300000000000000000004119000041190000F4
:10184000411900004119000041190000000000008A
:10185000411900000000000000000000000000002E
:10186000000000004119000000000000000000001E
:10187000000000000000000000000000411900000E
:1018800041190000000000004119000000000000A4
:101890000000000000000000000000000000000048
:1018A00041190000000000000000000000000000DE
:1018B00000000000000000000000000041190000CE
:1018C00010B5054B054A0649102099500549043AC0
:1018D000995000F097F810BD00000A40040800007D
:1018E000030000B10100002681229521044B49012B
:1018F000DA65DA60034B044A5A5004495A5070477B
:101900000080424000000A4004004000D012000065
:101910000021044A044BD150044A033113688B431D
:101920001360704700F00A400813000000010B40EC
:1019300010B5FFF7C5FFFFF7D7FFFFF7E9FF10BDB1
:10194000FEE7C0461A491B4B10B599420BD2013B2A
:101950005A1A00239208013217489200C458CC50FA
:1019600004339342FAD11549154B99420BD2013BEE
:101970005A1A00239208013212489200C458CC50DF
:1019800004339342FAD1104B104A934209D20021FA
:10199000013AD21A920801329200D21802C39A4236
:1019A000FCD100F035F800F015F8FFF7C9FF10BDC5
:1019B0000000002000000020581A00000000002055
:1019C00000000020581A0000000000200000002045
:1019D0007047C04670B5FFF7ABFF054C054B064A94
:1019E000064DE250064800F00DF8034B6351F9E74D
:1019F00000000A409012000004004000B0120000F5
:101A0000001BB700831E043BC046FCD27047C04693
:101A100070B50C4D0C4E761BB61005D0002408CDC9
:101A200001349847A642FAD1FFF7D2FF074D084E7E
:101A3000761BB61005D0002408CD01349847A64285
:101A4000FAD170BD581A0000581A0000581A000048
:081A5000581A0000000000001C
:04000003000018C021
:00000001FF
